:020000040800F2
:10000000F80600202D020008E3130008351300084D
:10001000E113000823040008E719000800000000AD
:100020000000000000000000000000009115000822
:100030002504000800000000E513000893150008DF
:10004000470200084702000847020008470200086C
:10005000470200084702000847020008470200085C
:10006000470200084702000847020008470200084C
:10007000470200084702000847020008470200083C
:10008000470200084702000847020008470200082C
:10009000470200084702000847020008470200081C
:1000A000470200084702000847020008470200080C
:1000B000470200080000000000000000470200089E
:1000C000470200080000000000000000470200088E
:1000D000000000004702000847020008000000007E
:1000E000470200084702000800000000000000006E
:1000F0000000000000000000000000000000000000
:10010000000000000000000000000000470200089E
:10011000000000000000000047020008470200083D
:10012000470200084702000847020008470200088B
:10013000470200080000000000000000000000006E
:10014000470200084702000847020008470200086B
:10015000470200084702000847020008470200085B
:10016000470200084702000847020008000000009C
:1001700047020008470200080000000000000000DD
:1001800047020008470200084702000800F002F892
:1001900000F03CF80AA090E8000C82448344AAF1E5
:1001A0000107DA4501D100F031F8AFF2090EBAE8E3
:1001B0000F0013F0010F18BFFB1A43F0010318479B
:1001C0001419000034190000103A24BF78C878C10F
:1001D000FAD8520724BF30C830C144BF04680C604D
:1001E000704700000023002400250026103A28BF95
:1001F00078C1FBD8520728BF30C148BF0B60704799
:100200001FB501F03BFC1FBD10B510BD00F0CFF8CD
:100210001146FFF7F5FF01F0F7FB00F0EDF803B42E
:10022000FFF7F2FF03BC00F0F5F800000948804733
:1002300009480047FEE7FEE7FEE7FEE7FEE7FEE7C8
:10024000FEE7FEE7FEE7FEE704480549054A064BE0
:1002500070470000111600088D010008F80000200A
:10026000F8060020F8020020F802002053EA020CF1
:1002700000F069802DE9F04B4FF00006002B1FBF06
:10028000B3FA83F503FA05F424FA05F65E4012BFCB
:100290001643B2FA82F502FA05F4C5F120051EBF35
:1002A00022FA05FC44EA0C04203556EA044C4FEAD5
:1002B000144418BF641C4FF000084FF0000990422E
:1002C00071EB030C39D3002919BFB1FA81F701FA98
:1002D00007F6B0FA80F700FA07F6C7F120071EBF4D
:1002E00020FA07FC46EA0C062037B6FBF4FCA7EB25
:1002F0000507103F07F01F0BCBF120060CFA0BFB94
:100300002CFA06F644BFB3460026202FA4BF5E4653
:100310004FF0000B5BEA060C08BF4FF0010B19EB26
:100320000B09ABFB027C48EB0608C01B06FB02CCAA
:100330000BFB03CC71EB0C01C1E70B4602464146B7
:100340004846BDE8F08B13B54FF000004FF00001B8
:10035000AFF30080BDE81C4070474FF0000200B5CD
:10036000134694469646203922BFA0E80C50A0E8D8
:100370000C50B1F12001BFF4F7AF090728BFA0E886
:100380000C5048BF0CC05DF804EB890028BF40F852
:10039000042B08BF704748BF20F8022B11F0804F94
:1003A00018BF00F8012B70477047704770477546BB
:1003B00000F02CF8AE4605006946534620F00700D1
:1003C000854618B020B5FFF73FFFBDE820404FF04D
:1003D00000064FF000074FF000084FF0000B21F02F
:1003E0000701AC46ACE8C009ACE8C009ACE8C009FC
:1003F000ACE8C0098D46704710B50446AFF30080E5
:100400002046BDE81040FFF70ABF000000487047D3
:100410009400002001491820ABBEFEE72600020030
:100420007047FEE7704772B6FEE7000070B50446FD
:1004300000F01AF90546601C02D004480078044414
:1004400000F012F9401BA042FAD370BD000000205A
:100450002DE9F04FDFF8E091002301270326A9F1F1
:10046000040B85B00F2509F1040AABF1040EDBE0A3
:1004700007FA03FC12EA0C027ED00C7904F00304A4
:10048000012C01D0022C20D1846800945C0006FA73
:1004900004F80494009C24EA08040094D1F80C8029
:1004A000049C08FA04F8009C48EA0408C0F8088094
:1004B000446824EA0C0491F804C0CCF3001C0CFA44
:1004C00003FC4CEA040CC0F804C00C79E443A40714
:1004D0000DD0D0F80CC04FEA430806FA08F42CEA15
:1004E000040C8C6804FA08F444EA0C04C4600C7927
:1004F00004F00304022C19D1DC0800EB84040294FC
:10050000246A4FEA437C4FEADC6CCDF810C005FA50
:100510000CFC24EA0C04D1F81080DDF810C008FAB5
:100520000CF848EA0408029CC4F8208004684FEAEA
:10053000430806FA08FC24EA0C0491F804C00CF005
:10054000030C0CFA08FC4CEA040CC0F800C04C6820
:1005500014F4403F67D0394CD4F860C04CF0010C23
:10056000C4F860C0246E23F0030C04F0010400946E
:10057000334C6444029400E055E0A4684FEA837C65
:100580004FEA1C7805FA08FC24EA0C04B0F1904FFD
:1005900006D0DFF8B0C0604505D14FF0010C0BE08C
:1005A0004FF0000C08E0DFF8A0C0604502D14FF02A
:1005B000020C01E04FF0070C0CFA08FC4CEA040CAA
:1005C000029CC4F808C0D9F80040CC46D1F8048099
:1005D00094435FEAC82800D51443CCF80040DAF809
:1005E0000040D446D1F8048094435FEA882800D5BF
:1005F0001443CCF80040DBF80040DC46D1F804801E
:1006000094435FEA883800D51443CCF80040DEF804
:100610000040F446D1F8048094435FEAC83800D51E
:100620001443CCF800405B1C0C682246DC407FF48D
:100630001FAF05B000F00AB80804014000100240E6
:1006400000000140000400480008004830BCBDE83C
:10065000C08F0069084000D0012070470AB1816155
:100660007047816270470000014880687047000051
:1006700000000020024881680278114481607047C0
:100680000000002010B50024032000F063F80F20C4
:1006900000F008F808B1012401E000F025F8204638
:1006A00010BD000070B50E4E05460024307898B19C
:1006B0004FF47A71B1FBF0F00A490968B1FBF0F030
:1006C00000F0B4FD40B9102D06D200222946501E7C
:1006D00000F020F8756000E00124204670BD0000A5
:1006E000000000200C000020094808B5016E41F010
:1006F00001010166016E01F001010091816D41F07F
:1007000080518165806D00F08050009008BD000030
:1007100000100240F0B40E4B1B680C46C3F30223DA
:10072000C3F10705042D00D90425191D072901D29D
:10073000002300E0DB1E012606FA05F1491E2140D8
:1007400099409E40761E16403143F0BC01F04CB9F2
:100750000CED00E0064900F0070208684FF6FF03C1
:10076000184040EA0220034A104308607047000026
:100770000CED00E00000FA051649B0F5007F0868AE
:10078000C0F3412009D0022805D0086820F4C060D9
:1007900040F480600860002070470128FBD00868A2
:1007A00020F4C06040F4007008600B4832220068FA
:1007B00050430A4AB0FBF2F0401C00E0401E4A6978
:1007C000520501D50028F9D148694005E3D5032039
:1007D00070470000007000400C00002040420F00F5
:1007E0000248006800F4C0607047000000700040DC
:1007F0000248016841F48071016070470070004058
:100800000248016841F00401016070470010024095
:100810002DE9F84F0446002700889C4D3E46000510
:1008200015D5E06B60B1B0F5000F04D0B0F5400F06
:100830002BD001270AE0E86840F48030E86024E02B
:100840000021201D00F0D0FD07001ED03E4620688C
:10085000800338D5A86D4FF00008C00009D4A86DFA
:1008600040F08050A865A86D4FF0010800F080505E
:100870000090DFF81CA2DAF8001041F48071CAF889
:100880000010FFF7F1FE814610E0D5F88800E16B1B
:1008900020F440000843C5F88800D8E7FFF7E4FEDD
:1008A000A0EB0900022801D9032704E0DAF80000D0
:1008B000C005F3D5EFB33E46B8F1000F03D0A86DE5
:1008C00020F08050A8652078C00707D0D5F88800B0
:1008D000216A20F003000843C5F8880020788007CB
:1008E00007D5D5F88800616A20F00C000843C5F8E8
:1008F00088002078800607D5D5F88800A16A20F402
:1009000040600843C5F888002088800507D5D5F8E1
:100910008800616B20F440200843C5F888002088D7
:10092000400509D5D5F88800A16B20F44010084394
:1009300000E02EE0C5F888002078400607D5D5F8FD
:100940008800E16A20F440500843C5F888002088F8
:10095000C00507D5D5F88800216B20F44030084346
:10096000C5F8880020884FF0006780044FF0806849
:100970004ED5D5F88800216C20F040600843C5F8BA
:100980008800206CB8423BD1E86840F48010E860F1
:100990003EE0D5F8900010F4407014D0216D8142F3
:1009A00011D0D5F89000D5F8901020F4407041F4A3
:1009B0008031C5F89010D5F8901021F48031C5F839
:1009C0009010C5F89000C00711D0FFF74DFE074604
:1009D00041F2883907E000BFFFF746FEC11B4945D9
:1009E00001D9032668E7D5F890008007F4D5D5F83B
:1009F0009000216D20F440700843C5F890005BE73B
:100A0000404505D10121201D00F0EEFC00B1064655
:100A10002068400317D5D5F88800616C20F040604D
:100A20000843C5F88800606CB84204D1E86840F417
:100A30008010E86007E0404505D10121201D00F04D
:100A4000D3FC00B106462088400411D5D5F88800B3
:100A5000A16C20F040500843C5F88800A06CB0F1AC
:100A6000805F05D10221201D00F0BEFC00B10646CA
:100A70002088000406D555F8880FE16C20F08040EE
:100A800008432860304600F005B80000001002401E
:100A90000070004018BCBDE8E08F00002DE9F04771
:100AA0000F4605006BD0494E306800F00700B84291
:100AB00009D2306820F0070038433060306800F019
:100AC0000700B8425BD12878414C80070AD5A86856
:100AD000A16801F0F001884204D9A16821F0F00179
:100AE0000143A1602878C0072CD06868032811D082
:100AF000022812D0216898B1490500293FDAA1687F
:100B000021F003010143A160FFF7AEFD804641F2F1
:100B1000883910E021688901EFE721688903ECE753
:100B20008907EAE7FFF7A0FDA0EB0801494502D9D4
:100B30000320BDE8F087A068696800F00C00B0EB06
:100B4000810FEFD1287880070AD5A868A16801F045
:100B5000F001884204D2A16821F0F0010143A160B4
:100B6000306800F00700B8420BD9306820F0070069
:100B700038433060306800F00700B84201D00120EF
:100B8000D7E72878400705D5A068E96820F4E06039
:100B90000843A0602878000706D5A068296920F4DA
:100BA000605040EAC100A06000F03EF8A168094A28
:100BB000C1F30311515C01F01F01C84006490860F0
:100BC00006480068BDE8F047FFF76CBD0020024012
:100BD000001002408C1A00080C00002004000020C5
:100BE0000548064900688968054AC1F30221515C3D
:100BF00001F01F01C84070470C00002000100240A7
:100C0000CC1A00080548064900688968054AC1F3FE
:100C1000C221515C01F01F01C84070470C00002048
:100C200000100240CC1A000870B525490023184670
:100C30008A68CC6812F00C0204F00306214C4FEADB
:100C4000640509D00C2A05D0042A32D0082A00D124
:100C5000284670BD012E10D10B681B0704D4D1F8B3
:100C60009430C3F3032302E00B68C3F30313164E5F
:100C700056F82330DAB10C2AEBD1C86800F0030033
:100C8000022818D0032818D01846CA68CB68C2F3C7
:100C90000212C3F306234343521CB3FBF2F2C868AB
:100CA000C0F34160401C4000B2FBF0F070BD18463C
:100CB00070BD204670BD2046E7E72846E5E7000006
:100CC000001002400024F4009C1A00082DE9F843AB
:100CD00004006FD0FA4DA86800F00C06E86800F038
:100CE00003072078C00664D576B10C2E01D1012F00
:100CF0000AD0A069002828687AD040F00100286056
:100D0000FFF7B2FC80465DE02868800702D5A06945
:100D10000028DED0216A2868000703D5286800F083
:100D2000F00004E0D5F89400F02202EA10108142AD
:100D300016D9084600F0EEFB00283BD1286840F0A9
:100D4000080028602868216A20F0F0000843286025
:100D50006868E16920F47F4040EA0120686016E09D
:100D6000286840F0080028602868216A20F0F00018
:100D7000084328606868E16920F47F4040EA012068
:100D8000686026B9206A00F0C5FB0028D5D1FFF7BE
:100D90004BFFA968CB4AC1F30311515C01F01F015D
:100DA000C840C9490860C9480068FFF77BFC0028B3
:100DB0007ED12EE0CAE000BFFFF756FCA0EB080092
:100DC000022876D828688007F6D5286840F0080001
:100DD00028602868216A20F0F000084328606868CD
:100DE000E16920F47F4040EA0120686011E0FFE7FC
:100DF00020F001002860FFF737FC804606E000BFC6
:100E0000FFF732FCA0EB08000228DAD82868800738
:100E1000F6D42078C00740D0082E18D00C2E01D16F
:100E2000032F14D06068B0F5803F17D0B0F5A02F25
:100E3000286817D020F480302860286820F48020AB
:100E400028606068E0B1FFF70FFC804614E0286876
:100E5000800322D56068002878D01EE0286840F41E
:100E60008030EDE740F480202860F7E7FFF7FCFBD7
:100E7000A0EB08006428A4D828688003F6D50CE00D
:100E8000FFF7F2FB804605E0FFF7EEFBA0EB080062
:100E9000642896D828688003F6D4207880073BD54C
:100EA000042E11D00C2E01D1022F0DD0E06801E0EC
:100EB000AAE1FFE0002828681ED040F48070286076
:100EC000FFF7D2FB07460CE0286840050CD5E06828
:100ED0000028C1D008E000BFFFF7C6FBC01B0228F6
:100EE00093D828684005F7D56868217C20F0F85031
:100EF00040EA016068600FE020F480702860FFF72E
:100F0000B3FB074605E000BFFFF7AEFBC01B02289E
:100F1000B1D828684005F7D42078000729D5606942
:100F20000028D5F8940012D040F00100C5F89400D4
:100F3000FFF79AFB074604E0FFF796FBC01B022869
:100F400099D8D5F894008007F6D512E02BE120F06F
:100F50000100C5F89400FFF787FB074605E000BFD6
:100F6000FFF782FBC01B022885D8D5F894008007C4
:100F7000F6D42078400766D5A86D0027C00008D4B5
:100F8000A86D40F08050A865A86D012700F0805042
:100F900000904F480168C90512D40168814641F4A8
:100FA00080710160FFF760FB804605E0FFF75CFBA6
:100FB000A0EB080002287DD8D9F80000C005F5D5BF
:100FC000A068012816D00528D5F8900017D020F089
:100FD0000100C5F89000D5F8900020F0040000BF93
:100FE000C5F89000A06841F28839C0B1FFF73CFB1A
:100FF00080460FE0D5F8900040F00100F0E740F0A7
:101000000400C5F89000F5E7FFF72EFBA0EB080100
:1010100049454FD8D5F890008007F5D50EE0FFF789
:1010200023FB804606E000BFFFF71EFBA0EB080194
:1010300049453FD8D5F890008007F5D41FB1A86D79
:1010400020F08050A8652078800628D5606A0028A6
:10105000D5F8980012D040F00100C5F89800FFF7CD
:1010600003FB074605E000BFFFF7FEFAC01B02289E
:1010700020D8D5F898008007F6D510E020F00100C0
:10108000C5F89800FFF7F0FA074604E0FFF7ECFA1E
:10109000C01B02280ED8D5F898008007F6D4A06AA5
:1010A000F0B3022816D00C2E7DD0286820F0807076
:1010B000286000E0A7E0FFF7D7FA0446A6E00000AA
:1010C000001002408C1A00080C00002004000020D0
:1010D00000700040E868E26A00F00301914228D104
:1010E000216B00F0700209011039914221D1626B2D
:1010F00000F4FE41B1EB022F1BD194F8382000F030
:101100007841B1EBC26F14D1A18F00F4C00249083D
:101110004905A1F5001191420BD194F8401000E06F
:101120006AE04908490600F0C060A1F100718142FF
:101130004BD00C2E73D02868400170D4286820F062
:1011400080702860FFF790FA064604E0FFF78CFAFB
:10115000801B022857D828688001F7D4F4E90B01D6
:101160006FF00F0202EB01110843218A5204490873
:1011700002EB4151A26841EA02210843217D4FF070
:101180007E42490802EB41610843217B40EAC1608D
:10119000E968244A11400843E860286840F08070FC
:1011A0002860E86800E03AE040F08070E860FFF70F
:1011B0005BFA044605E000BFFFF756FA001B022861
:1011C00021D828688001F7D527E02868800124D439
:1011D000286840F080702860E86840F08070E8601F
:1011E000FFF742FA044604E0FFF73EFA001B02282C
:1011F00009D828688001F7D50FE000BFFFF734FA5F
:10120000001B022802D90320BDE8F883286880016A
:10121000F4D4E86804490840E8600020F4E70120BD
:10122000F2E700008C809D01FCFFEEFE10B5401E31
:10123000B0F1807F01D3012010BD4FF0E024606148
:101240000F21601700F0D0FB0020A0610720206173
:10125000002010BD10B5040002D0A06F10B107E04F
:10126000012010BD002084F87400204600F026F80C
:101270002420A0672068016821F001010160204658
:1012800000F060FA0128ECD0606A10B1204600F04E
:10129000C7F92068416821F4904141602068816865
:1012A00021F02A0181602068016841F0010101609C
:1012B0002046BDE8104000F017BA000030B59BB0E2
:1012C0000446142115A8FFF748F854216846FFF793
:1012D00044F816492068884226D102240025684631
:1012E00009950094FFF794FA08B1FFF79CF81048AD
:1012F000816D41F400318165816D01F400311A91F5
:10130000C16C41F00101C164C06C15A900F001007D
:101310001A900C2081E831000320189007201990C2
:101320004FF09040FFF794F81BB030BD00440040F0
:1013300000100240FEE7000070B586B01421684638
:10134000FFF70BF81748C16C41F00401C164C16C90
:1013500001F004010591C16C41F00101C164C06C50
:101360004FF4006500F001004FF090460590002218
:1013700029463046FFF772F900244FF4C060CDE9EA
:101380000004694630460294FFF762F80120009598
:10139000CDE90104694630460394FFF759F806B0D9
:1013A00070BD0000001002400C4810B50A490160F1
:1013B0004FF4E1314160002181600C22C160C0E93D
:1013C00004128161C16101624162FFF743FF00289D
:1013D00001D072B6FEE710BD0044004010000020AE
:1013E000FEE7FEE7704700002DE9F041444C05465A
:1013F0008846E0680026810728680DD0E16801F082
:101400000301814216D1A8B1E0686968C0F30210F7
:10141000401C88420ED120E0012804D0022805D0CB
:10142000032807D108E02168890701E02168490500
:10143000002907DB01265FE02168890302D42168C7
:101440004903F5E7E1686A686FF00F0321F0730163
:1014500003EB021211430143E160206820F0806039
:101460002060FFF701F9074605E000BFFFF7FCF831
:10147000C01B022837D820680001F7D4B8F1000F4C
:1014800018D0B8F1010F1DD0287D4FF07E414008E3
:1014900001EB4060A96840EA01202169194A114026
:1014A00008432061206840F080602060FFF7DCF88E
:1014B00007461AE0A868297B000240EAC16021695A
:1014C000114AECE7288A1149400801EB4050A9680D
:1014D00040EA012021690E4AE1E700BFFFF7C4F8A6
:1014E000C01B022801D9032606E020680001F5D5BB
:1014F0002069A969084320613046BDE8F0810000F9
:1015000000100240FF80FFF9FF80FF070000E0FFAE
:10151000FF809FFFF8B51C4D06460024A86DC00053
:1015200002D5FFF75DF90DE0A86D40F08050A86589
:10153000A86D00F080500090FFF752F9A96D21F0DE
:101540008051A965B0F5007F04D0802E07D94FF0F7
:1015500003040AE0802E08D9A02E01D804E001D1AE
:10156000022402E0702E00D101240848016821F015
:10157000070121430160006800F00700A04201D08C
:101580000120F8BD0020F8BD0010024000200240FC
:101590007047FFF76FB8000010B596B04421684659
:1015A000FEF7DBFE142111A8FEF7D7FE4FF4007002
:1015B000FFF7E2F808B172B6FEE7FFF719F9134832
:1015C00050F8901F21F018010160142000900120B4
:1015D00000240290CDE90604602008900A94684631
:1015E000FFF774FB08B172B6FEE70F20CDE91104D6
:1015F00013941494002111A81594FFF74FFA08B121
:1016000072B6FEE7FFF7FCF816B010BD00100240FE
:101610000248016841F470010160704788ED00E004
:1016200090F82410C90706D001684A68836A22F43A
:1016300000321A434A6090F82410890706D50168E1
:101640004A68C36A22F480321A434A6090F8241030
:10165000490706D501684A68036B22F480221A43C1
:101660004A6090F82410090706D501684A68436B60
:1016700022F400421A434A6090F82410C90606D5A5
:1016800001688A68836B22F480521A438A6090F85A
:101690002410890606D501688A68C36B22F40052BB
:1016A0001A438A6090F82410490611D501684A68E7
:1016B000036C22F480121A434A60016CB1F5801F5A
:1016C00006D101684A68436C22F4C0021A434A609A
:1016D00090F82410090606D501684A68806C22F447
:1016E000002202434A607047F8B500260446C0F85D
:1016F0008060FEF7B9FF0546206800686FF07E47FE
:10170000000708D52B4600224FF400112046009711
:1017100000F006F960B92068006840070AD52B463A
:1017200000224FF480012046009700F0F9F808B13C
:101730000320F8BD2020A067E067266684F8746067
:101740000020F8BD2DE9F041044601688068226957
:10175000E66910436269002532431043694B0A6809
:10176000694E324002430A6020684168E26821F411
:101770004051114341602168A069994201D0226A19
:1017800010438A6822F4306202438A605F49276806
:101790005F488F420DD1D0F8880010F0030006D0CA
:1017A000012838D0022834D0032821D135E0012186
:1017B0001FE058498F420BD1D0F8880010F00C0080
:1017C00025D0042827D0082823D00C2810D124E0C5
:1017D0009F420DD1D0F8880010F4406017D0B0F5CA
:1017E000806F18D0B0F5006F13D0B0F5406F14D0F3
:1017F0001021494A00264FF400409F422FD171B179
:1018000002290FD004290FD0082973D10FE000213D
:10181000EFE70221EDE70421EBE70821E9E7FFF715
:10182000DFF903E0104602E0FFF7FEF9F0B362686B
:1018300002EB420181425DD8B0EB023F5AD8010E63
:1018400003025008181871410023FEF70FFD334AB8
:10185000A0F5407191424DD82168C8604BE0E36922
:101860004FF6EF77834228D1092943D2DFE801F010
:1018700005080B420D4242421000FFF7B1F906E0A5
:10188000FFF7C0F903E0104602E0FFF7CDF968B1B9
:101890004100606801EB5001B1FBF0F0A0F11001D4
:1018A000B94227D84FF6F071014000E023E0C0F3C1
:1018B000420001432068C1601DE009291AD2DFE817
:1018C00001F005080B190D1919191000FFF788F917
:1018D00006E0FFF797F903E0104602E0FFF7A4F9EE
:1018E00048B1616800EB5100B0FBF1F0A0F11001CC
:1018F000B94205D9012566662846A666BDE8F0818D
:1019000080B2A9E700800040F369FFEF0038014092
:1019100000100240004400400024F400FFFC0F00CF
:101920002DE9F0479A4617460E4604464FF0000947
:101930004FF02008089D4AE0681C48D0FEF794FE4E
:10194000A0EB0A00A8422AD84DB3206801684907D5
:101950003DD5C069C043000539D421684FF400600B
:101960000862206850E8001F21F4D07140E800129E
:10197000002AF6D12068083050E8001F21F001014C
:1019800040E80012002AF5D1C4F87880C4F87C80C1
:10199000C4F8808084F874900320BDE8F087216843
:1019A00051E8000F20F4D07041E80002002AF6D17F
:1019B0002068083050E8001F21F0010140E80012C3
:1019C000002AF5D1C4F87880C4F87C80E2E720686A
:1019D000C06936EA000004D00020B842ACD0002034
:1019E000DBE70120F9E7FEE70907090E002804DB21
:1019F00000F1E02080F80014704700F00F0000F1C3
:101A0000E02080F8141D70479AB0FEF73BFEFFF708
:101A1000C3FDFFF791FCFFF7C7FC602101A8FEF7AB
:101A20009CFC15484FF480656E10006841F28837C1
:101A30004FF090444FF400684FF4FA790090294633
:101A40002046FEF706FE58B131462046FEF701FE5D
:101A500030B1012241462046FEF700FE384605E03F
:101A6000002241462046FEF7F9FD4846FEF7DEFC1F
:101A70004846FEF7DBFCE2E7881A00084FF04070AA
:101A8000E1EE100A704700000100000000000000B5
:101A9000000000000102030406070809A0860100F7
:101AA000400D0300801A060000350C0040420F0074
:101AB00080841E0000093D0000127A000024F4001A
:101AC00000366E010048E801006CDC0200000000F6
:101AD00001020304F41A00080000002010000000B6
:101AE000C8010008041B000810000020E8060000E0
:101AF000E4010008010000001000000000000000E8
:041B000000093D009B
:040000050800018D61
:00000001FF
